:100000000C942A000C9447000C9447000C94470071
:100010000C9447000C9447000C9447000C94470044
:100020000C9447000C9447000C9447000C94CC01AE
:100030000C9447000C94C0010C9447000C944700AA
:100040000C9447000C9447000C9447000C943A021F
:100050000C94470011241FBECFE5D4E0DEBFCDBF16
:1000600010E0A0E6B0E0EAE7FBE002C005900D92E8
:10007000AE36B107D9F711E0AEE6B0E001C01D928F
:10008000A631B107E1F70E9449000C94BB050C941E
:1000900000000E94F9008FEF90E00E940E020E9483
:1000A00043010E94C6020E94F0020E944304A19AEA
:1000B000A99ABF9A84E890E060E041E050E00E9495
:1000C00066028FE095E061E044E150E00E94660244
:1000D00082E061E00E94540280E090E00E942203EE
:1000E0000E94FF02813021F40E941103A99808C0E8
:1000F00080ED97E060E070E048EE53E00E94270357
:1001000078940E948102FDCF8AE990E00E94440128
:100110000E94A101DC01909372008093710040E085
:1001200050E060E020E030E0CD01022E02C0969564
:1001300087950A94E2F780FF0AC06F5FF901ED59D5
:10014000FF4F8081992787FD9095480F591F2F5F9A
:100150003F4F2A30310541F740937A0050937B009E
:1001600060937C00662389F0772767FD7095CA014C
:100170000E945E05862F992787FD909590937000C9
:1001800080936F006093600009C0809160009927A0
:1001900087FD90959093700080936F0080916F0021
:1001A00090917000909581959F4F909370008093EF
:1001B0006F000E943E039C01909375008093740031
:1001C0001816190614F0009761F080916100909163
:1001D0006200B901680F791F821B930B0E942401F2
:1001E00008952091610081E0622F41E00E940701A3
:1001F000089580E491E097BD86BD8FB5816A8FBD7B
:100200008EB582608EBD81B3886781BB089570E032
:10021000813041F4939A8FEF90E0861B970B99BD44
:1002200088BD03C0939879BD68BD30E0413041F48A
:10023000969A8FEF90E0821B930B9BBD8ABD089529
:1002400096983BBD2ABD08959C011816190634F4F2
:10025000939A8FEF90E0821B910903C09398819548
:1002600090E099BD88BD1616170634F4969A8FEF64
:1002700090E0861B910904C09698862F819590E0A6
:100280009BBD8ABD0895089510927E0010927D0056
:100290009FEF9ABB87B3836087BB9BBB85B38360AB
:1002A00085BB82E48A95F1F71ABA1BBA84B38C7FB6
:1002B00084BB85B38C7F85BBEEEAF0E089E190E0FA
:1002C0008193919320E0E23CF207D1F720E030E007
:1002D00062E423C089B390E0042E02C0959587950F
:1002E0000A94E2F780FD02C0318320834F5F5F4FA5
:1002F00032964830510571F7B09904C03093B1007F
:100300002093B000B19904C03093AF002093AE00A9
:10031000862F8A95F1F72F5F3F4F2931310528F459
:10032000E2EBF0E040E050E0D5CF30937E00209348
:100330007D008EEA90E0029620E0823C9207D9F799
:10034000089589B380937F0026B32093800030E026
:10035000A90141705070440F551F227030703695BE
:100360002795422B532B90E0880F991F880F991FD8
:10037000482B592B5093820040938100CA01089565
:100380001F920F920FB60F9211241092C2000F907D
:100390000FBE0F901F9018951F920F920FB60F92DD
:1003A00011248F939F93EF93FF9382E08093C40077
:1003B0008091C3009CB1E82FF0E0EB53FF4F908396
:1003C0008F5F8093C300843110F01092C300FF91BF
:1003D000EF919F918F910F900FBE0F901F901895E6
:1003E000AC01F8948091C400823011F080E014C018
:1003F00020E00AC0E22FF0E0DA01AE0FBF1FEB539E
:10040000FF4F80818C932F5F8091C300281790F35A
:100410001092C3001092C400789408951092C30003
:100420001092C2001092C40082E08BB988ED8AB9A4
:1004300086E880BD83E089B981E080BD7894089525
:100440008CB95D9BFECF0895982F8091C2008823C0
:1004500011F085E008959CB984E008958BE083BF96
:1004600012BE1CBEBB9A89B7826089BF08958CBF3B
:10047000089508951F920F920FB60F9211248F9333
:100480009F9381E080938500809183009091840008
:10049000019690938400809383009F918F910F9099
:1004A0000FBE0F901F901895982F613031F48091F6
:1004B000D900892B8093D9000895623031F490954A
:1004C0008091D90089238093D90008956930C0F4C0
:1004D000E62FF0E0EE0FFF1FDF01A652BF4F8D9316
:1004E0009C93E651FF4F5183408380918600909109
:1004F00087008417950720F4509387004093860067
:100500000895EF92FF920F931F93CF93DF93809103
:100510008500813081F53AEEE32E30E0F32E0AEDCE
:1005200010E0C0E0D0E08091D90090E00C2E02C035
:10053000959587950A94E2F780FF0FC0809183001C
:1005400090918400D7016D917C910E944A05892B7E
:1005500021F4D801ED91FC9109952196E2E0F0E0BB
:10056000EE0EFF1E0E5F1F4FC930D105E1F682E08F
:100570008093850004C0809185008230E1F3DF9193
:10058000CF911F910F91FF90EF90089589E392E032
:100590009093DB008093DA009093DD008093DC0081
:1005A0009093DF008093DE009093E1008093E00061
:1005B0009093E3008093E2009093E5008093E40041
:1005C0009093E7008093E6009093E9008093E80021
:1005D0000E942E028AEF0E9437021092D9000895DD
:1005E00010926D0008952091940030919500C901FA
:1005F00008952091920030919300C901089580914F
:100600008A0090918B008F5F9F4F49F080918C0002
:1006100090918D008F5F9F4F11F081E0089582E0EF
:10062000089580918A0090918B009093910080931F
:10063000900080918C0090918D0090939300809316
:100640009200089590938F0080938E000895909368
:100650009500809394007093910060939000509364
:10066000930040939200089590939300809392009A
:100670000895909395008093940008956F927F92CF
:100680008F929F92AF92BF92CF92DF92EF92FF92A2
:100690000F931F9320918E0030918F00281B390BF0
:1006A0003093FF002093FE002091FE003091FF0068
:1006B0008091FA009091FB002817390781F0809112
:1006C000FE009091FF002091FA003091FB00821B08
:1006D000930B909301018093000184E107C0809106
:1006E0006D00181634F480916D00815080936D0078
:1006F0000EC08091FE009091FF002091FA00309191
:10070000FB00821B930B909301018093000160908A
:10071000940070909500A090FE00B090FF00209192
:10072000920030919300609100017091010188273F
:1007300077FD8095982F40E050E00E942B057B01CB
:100740008C01CC24B7FCC094DC2C88249924C601ED
:10075000B501A40193010E942B05E60EF71E081FA8
:10076000191FE0926E00F0926F00009370001093DA
:10077000710080916E0090916F00A0917000B09117
:10078000710080509048A040B0402CF08FEF9FE760
:10079000A0E0B0E011C080916E0090916F00A09138
:1007A0007000B091710081509048AF4FBF4F64F41A
:1007B00081E090E8AFEFBFEF80936E0090936F0001
:1007C000A0937000B093710020916E0030916F0083
:1007D0004091700050917100CA01B901E7E0660FC5
:1007E000771F881F991FEA95D1F7621B730B840B43
:1007F000950B2FEF3FE740E050E00E947105332753
:1008000027FD30953093FD002093FC008091FE0081
:100810009091FF009093FB008093FA002091FC00E0
:100820003091FD00C9011F910F91FF90EF90DF9073
:10083000CF90BF90AF909F908F907F906F900895D2
:10084000BC01E199FECF82E090E00E9499050895F5
:10085000BC01E199FECF80E090E00E9499050895E7
:10086000CF93DF939C01EB01E199FECF80E090E014
:10087000B9010E94990582E090E0BE010E949905AD
:10088000DF91CF910895E199FECF80E090E00E9442
:10089000930590938B0080938A0082E090E00E9401
:1008A000930590938D0080938C00089508951F9375
:1008B00010919900123009F442C0133030F4112322
:1008C00071F0113009F0A9C00FC0143009F46FC0E5
:1008D000143008F44AC0153009F09FC07CC085353B
:1008E00009F099C081E028C08A3A69F481E062E0A9
:1008F0000E94540281E060E041E020E00E94070194
:100900001092960087C08F3F39F481E061E00E9429
:100910005402109396007EC0813F11F482E00CC017
:10092000823F11F483E008C0813D11F484E004C0EB
:10093000823D09F070C085E0809399006EC08A3ACC
:1009400009F069C00E94F3029C0190939800809383
:100950009700A0E0B0E080509A4FA040B0400CF06B
:100960005AC0C90188519C4F15C08A3A09F053C03A
:100970000E94F3029C019093980080939700A0E05E
:10098000B0E0895E9340A040B0400CF444C0C9017F
:10099000885E934090939800809397000E9428046B
:1009A00080919700909198000E94390333C08A3A51
:1009B00091F50E94F9029C01909398008093970012
:1009C000A0E0B0E080509A4FA040B04024F5C901AB
:1009D00088519C4F13C08A3AF1F40E94F9029C019D
:1009E0009093980080939700A0E0B0E0895E9340D8
:1009F000A040B04084F0C901885E93409093980075
:100A0000809397000E942004809197009091980015
:100A10000E943403A998109299001F9108950F9392
:100A20001F93CF93DF93A99A82E091E00E94F00197
:100A3000C2E0D1E0082F10E00C0F1D1F04C0888118
:100A40000E9457041992C017D107C9F7DF91CF91BF
:100A50001F910F910895629FD001739FF001829FB3
:100A6000E00DF11D649FE00DF11D929FF00D839F3D
:100A7000F00D749FF00D659FF00D9927729FB00DDA
:100A8000E11DF91F639FB00DE11DF91FBD01CF01ED
:100A900011240895AA1BBB1B51E107C0AA1FBB1F4D
:100AA000A617B70710F0A61BB70B881F991F5A95FA
:100AB000A9F780959095BC01CD01089597FB092E6B
:100AC00007260AD077FD04D0E5DF06D000201AF40F
:100AD000709561957F4F0895F6F7909581959F4F9A
:100AE0000895A1E21A2EAA1BBB1BFD010DC0AA1F6F
:100AF000BB1FEE1FFF1FA217B307E407F50720F087
:100B0000A21BB30BE40BF50B661F771F881F991F01
:100B10001A9469F760957095809590959B01AC014A
:100B2000BD01CF010895A8E1B0E042E050E00C948F
:100B3000A0050E94AE05272F0C94AF05DC01CB0168
:100B4000FC01E199FECF06C0FFBBEEBBE09A3196F7
:100B50000DB20D9241505040B8F70895262FE199FB
:100B6000FECF9FBB8EBB2DBB0FB6F894E29AE19AE5
:0A0B70000FBE01960895F894FFCF20
:0E0B7A00048000CED8E2ECF60A141E28320ADF
:00000001FF
