:100000000C942A000C9447000C9447000C94470071
:100010000C9447000C9447000C9447000C94470044
:100020000C9447000C9447000C9447000C945D011D
:100030000C9447000C9451010C9447000C94470019
:100040000C9447000C9447000C9447000C94CB018F
:100050000C94470011241FBECFE5D4E0DEBFCDBF16
:1000600010E0A0E6B0E0ECE0F9E002C005900D92EF
:10007000A836B107D9F710E0A8E6B0E001C01D929C
:10008000A43DB107E1F70E9449000C9484040C944C
:1000900000000E94150183E091E00E949F010E94F0
:1000A00040010E9467020E949102E199FECF80E028
:1000B00090E00E946E04909369008093680082E053
:1000C00090E00E946E0490936B0080936A008DE82C
:1000D00090E060E041E050E00E9407028FED93E085
:1000E00061E044E150E00E94070282E061E00E948A
:1000F000F50180E090E00E94920240916A005091E8
:100100006B00809168009091690060E070E00E944F
:10011000970278940E942202FDCF0E9449018093A9
:100120006D005091610061E070E0052E02C0660F25
:10013000771F0A94E2F720E030E0E82FF0E0422F4A
:10014000CB01022E02C0880F991F0A94E2F78E237A
:100150009F23892B19F0822F850F0DC0CB01022E12
:1001600002C0959587950A94E2F78E239F23892BE9
:1001700029F0852F821B8093600006C04F5F2F5FA0
:100180003F4F28303105D9F6483011F450936000C4
:100190002091600020936100332727FD309584E093
:1001A00090E0821B930B0E94A40280936F001816AC
:1001B000C4F430916200282F230F209370008536FD
:1001C0001CF082E0622F0BC088E2289FC00111243E
:1001D0006CE97FEF0E943904360F81E0632F41E024
:1001E00021C0309162008823C9F0819580936F000F
:1001F000282F230F20937100813524F081E0622F96
:1002000042E010C088E2289FC00111246CE97FEF12
:100210000E943904360F81E0622F02C081E0632F13
:1002200041E0232F0E942301089580E491E097BDCF
:1002300086BD8FB5816A8FBD8EB582608EBD81B35C
:10024000886781BB089570E0813041F4939A8FEF05
:1002500090E0861B970B99BD88BD03C0939879BD2C
:1002600068BD30E0413041F4969A8FEF90E0821BF8
:10027000930B9BBD8ABD089596983BBD2ABD0895FA
:100280001ABA87B38C7F87BB8FEF8BBB83E088BBA9
:10029000089599B386B3869581709C7F990F892BB9
:1002A00008951F920F920FB60F92112410928100A1
:1002B0000F900FBE0F901F9018951F920F920FB6C0
:1002C0000F9211248F939F93EF93FF9382E080937B
:1002D0008300809182009CB1E82FF0E0EC57FF4F43
:1002E00090838F5F80938200843110F0109282009F
:1002F000FF91EF919F918F910F900FBE0F901F90E4
:100300001895AC01F89480918300823011F080E060
:1003100014C020E00AC0E22FF0E0DA01AE0FBF1FE8
:10032000EC57FF4F80818C932F5F809182002817BC
:1003300090F31092820010928300789408951092A6
:100340008200109281001092830082E08BB988EDC8
:100350008AB986E880BD83E089B981E080BD789460
:1003600008958CB95D9BFECF0895982F80918100F0
:10037000882311F085E008959CB984E008958AE00F
:1003800083BF12BE1CBEBB9A89B7826089BF089525
:100390008CBF089508951F920F920FB60F921124EB
:1003A0006F937F938F939F93809177006AE00E9471
:1003B0001904992361F481E08093740080917200A4
:1003C00090917300019690937300809372008091D6
:1003D00077008F5F809377009F918F917F916F91CE
:1003E0000F900FBE0F901F901895982F613031F429
:1003F00080919800892B809398000895623031F4A1
:100400009095809198008923809398000895693091
:10041000C0F4E62FF0E0EE0FFF1FDF01A756BF4F3D
:100420008D939C93E755FF4F5183408380917500D6
:10043000909176008417950720F4509376004093AE
:1004400075000895EF92FF920F931F93CF93DF9360
:1004500080917400813081F539EAE32E30E0F32E8B
:1004600009E910E0C0E0D0E08091980090E00C2E07
:1004700002C0959587950A94E2F780FF0FC080919E
:10048000720090917300D7016D917C910E942504B8
:10049000892B21F4D801ED91FC9109952196E2E098
:1004A000F0E0EE0EFF1E0E5F1F4FC930D105E1F6E2
:1004B00082E08093740004C0809174008230E1F384
:1004C000DF91CF911F910F91FF90EF9008958AECEB
:1004D00091E090939A008093990090939C00809370
:1004E0009B0090939E0080939D009093A00080932A
:1004F0009F009093A2008093A1009093A40080930A
:10050000A3009093A6008093A5009093A8008093E9
:10051000A7000E94BF018AEF0E94C80110929800B4
:1005200008950895909379008093780008959093AA
:1005300066008093650070937B0060937A0050930F
:1005400064004093630008952F923F924F925F9210
:100550006F927F928F929F92AF92BF92CF92DF92D3
:10056000EF92FF920F931F93CF93DF932091780028
:1005700030917900281B390B3093BD002093BC00CB
:1005800020917C0030917D008091BC009091BD0055
:10059000820F931F90937D0080937C0080917E005A
:1005A00090917F00019690937F0080937E008091D0
:1005B000BC009091BD002091B9003091BA00821B1F
:1005C000930B9093BF008093BE0060906500709085
:1005D0006600A090BC00B090BD00209163003091F7
:1005E00064006091BE007091BF00C0917A00D0910C
:1005F0007B0020907C0030907D00882777FD8095DF
:10060000982F442737FD4095542F0E94FA037B0111
:100610008C01CC24B7FCC094DC2C882477FC80941B
:10062000982CC601B501A40193010E94FA03E60EBD
:10063000F71E081F191F442437FC4094542C9E01B8
:10064000442737FD4095542FC201B1010E94FA039F
:10065000E60EF71E081F191FE0926C00F0926D0065
:1006600000936E0010936F0080916C0090916D006C
:10067000A0916E00B0916F0080509048A040B040B3
:100680002CF08FEF9FE7A0E0B0E011C080916C00EC
:1006900090916D00A0916E00B0916F0081509048D4
:1006A000AF4FBF4F64F481E090E8AFEFBFEF8093AE
:1006B0006C0090936D00A0936E00B0936F0020913A
:1006C0006C0030916D0040916E0050916F00CA0136
:1006D000B901E7E0660F771F881F991FEA95D1F7E8
:1006E000621B730B840B950B2FEF3FE740E050E04C
:1006F0000E944C042093BB008091BC009091BD00EF
:100700009093BA008093B9008091BB00DF91CF91A4
:100710001F910F91FF90EF90DF90CF90BF90AF901F
:100720009F908F907F906F905F904F903F902F9011
:100730000895089590918000923079F1933028F4D3
:10074000992351F09130D1F50BC09430C9F0943019
:1007500050F1953099F510C0803A59F581E020C0EC
:10076000882311F0823011F485E01AC0823811F02C
:100770008038F9F482E014C08A30D9F484E010C0E3
:100780008823B9F481E062E00E94F50181E060E035
:1007900041E020E00E9423010895823051F483E07B
:1007A000809380000895882339F481E061E00E94FD
:1007B000F5011092800008951092800008950F9323
:1007C0001F93CF93DF9380EC90E00E948101C0ECF7
:1007D000D0E0082F10E00C0F1D1F04C088810E947C
:1007E0009A031992C017D107C9F7DF91CF911F91D2
:1007F0000F910895629FD001739FF001829FE00DD9
:10080000F11D649FE00DF11D929FF00D839FF00D8F
:10081000749FF00D659FF00D9927729FB00DE11D3B
:10082000F91F639FB00DE11DF91FBD01CF01112418
:100830000895991B79E004C0991F961708F0961B3C
:10084000881F7A95C9F780950895AA1BBB1B51E1B3
:1008500007C0AA1FBB1FA617B70710F0A61BB70B30
:10086000881F991F5A95A9F780959095BC01CD01D5
:10087000089597FB092E07260AD077FD04D0E5DFFF
:1008800006D000201AF4709561957F4F0895F6F711
:10089000909581959F4F0895A1E21A2EAA1BBB1B2C
:1008A000FD010DC0AA1FBB1FEE1FFF1FA217B3073C
:1008B000E407F50720F0A21BB30BE40BF50B661F52
:1008C000771F881F991F1A9469F760957095809516
:1008D00090959B01AC01BD01CF010895A8E1B0E066
:1008E00042E050E00C947604DC01CB01FC01E1997C
:1008F000FECF06C0FFBBEEBBE09A31960DB20D9263
:0C09000041505040B8F70895F894FFCF24
:08090C0008083C8813E8030011
:00000001FF
