:100000000C942A000C9447000C9447000C94470071
:100010000C9447000C9447000C9447000C94470044
:100020000C9447000C9447000C9447000C946F010B
:100030000C9447000C9463010C9447000C94470007
:100040000C9447000C9447000C9447000C94DD017D
:100050000C94470011241FBECFE5D4E0DEBFCDBF16
:1000600010E0A0E6B0E0EAEDF8E002C005900D92E5
:10007000A836B107D9F710E0A8E6B0E001C01D929C
:10008000A03DB107E1F70E9449000C946B040C9469
:1000900000000E94FF0083E091E00E94B1010E94F5
:1000A0002A010E9470020E949A0287E790E060E0B5
:1000B00041E050E00E94100288EE93E061E044E1EC
:1000C00050E00E94100282E061E00E94FE0180E0A8
:1000D00090E00E949B0288E59BE160E070E048E9C7
:1000E0005AE30E94A00278940E942B02FDCF0E9446
:1000F0005B01809369005091610061E070E0052E22
:1001000002C0660F771F0A94E2F720E030E0E82F84
:10011000F0E0422FCB01022E02C0880F991F0A94F3
:10012000E2F78E239F23892B19F0822F850F0DC0B4
:10013000CB01022E02C0959587950A94E2F78E2393
:100140009F23892B29F0852F821B8093600006C096
:100150004F5F2F5F3F4F28303105D9F6483011F4FB
:10016000509360002091600020936100332727FDA9
:10017000309584E090E0821B930B0E94AD02809347
:100180006B001816C4F430916200282F230F2093BF
:100190006C0085361CF082E0622F0BC088E2289F3D
:1001A000C00111246CE97FEF0E943604360F81E014
:1001B000632F41E021C0309162008823C9F081950E
:1001C00080936B00282F230F20936D00813524F03E
:1001D00081E0622F42E010C088E2289FC001112414
:1001E0006CE97FEF0E943604360F81E0622F02C077
:1001F00081E0632F41E0232F0E940D01089580E4E8
:1002000091E097BD86BD8FB5816A8FBD8EB5826046
:100210008EBD81B3886781BB089570E0813041F461
:10022000939A8FEF90E0861B970B99BD88BD03C012
:10023000939879BD68BD30E0413041F4969A8FEFD4
:1002400090E0821B930B9BBD8ABD089596983BBDA1
:100250002ABD08951ABA87B38C7F87BB8FEF8BBBFB
:1002600083E088BB0895FC0186B3829586958170F2
:10027000808383B38170818383B386958170828309
:1002800080B38695869586958170838380B3881F19
:100290008827881F848386B382958170858386B37F
:1002A0008695869586958170868386B38695869594
:1002B00081708783089599B386B3869581709C7FFA
:1002C000990F892B08951F920F920FB60F92112448
:1002D00010927D000F900FBE0F901F9018951F92E7
:1002E0000F920FB60F9211248F939F93EF93FF936A
:1002F00082E080937F0080917E009CB1E82FF0E047
:10030000E058FF4F90838F5F80937E00843110F020
:1003100010927E00FF91EF919F918F910F900FBEF1
:100320000F901F901895AC01F89480917F00823057
:1003300011F080E014C020E00AC0E22FF0E0DA0102
:10034000AE0FBF1FE058FF4F80818C932F5F8091CD
:100350007E00281790F310927E0010927F00789410
:10036000089510927E0010927D0010927F0082E02E
:100370008BB988ED8AB986E880BD83E089B981E0D0
:1003800080BD789408958CB95D9BFECF0895982F19
:1003900080917D00882311F085E008959CB984E068
:1003A00008958AE083BF12BE1CBEBB9A89B78260E3
:1003B00089BF08958CBF089508951F920F920FB6BC
:1003C0000F9211248F939F938091730090E083701C
:1003D0009070892B61F481E08093700080916E00B1
:1003E00090916F00019690936F0080936E009F91A3
:1003F0008F910F900FBE0F901F901895982F61301E
:1004000031F480919400892B809394000895623098
:1004100031F49095809194008923809394000895FD
:100420006930C0F4E62FF0E0EE0FFF1FDF01AB569E
:10043000BF4F8D939C93EB55FF4F51834083809129
:100440007100909172008417950720F45093720008
:10045000409371000895EF92FF920F931F93CF93F3
:10046000DF9380917000813081F535EAE32E30E032
:10047000F32E05E910E0C0E0D0E08091940090E018
:100480000C2E02C0959587950A94E2F780FF0FC065
:1004900080916E0090916F00D7016D917C910E94C8
:1004A0002204892B21F4D801ED91FC910995219624
:1004B000E2E0F0E0EE0EFF1E0E5F1F4FC930D105E7
:1004C000E1F682E08093700004C080917000823079
:1004D000E1F3DF91CF911F910F91FF90EF9008957D
:1004E0008CED91E090939600809395009093980006
:1004F0008093970090939A008093990090939C002A
:1005000080939B0090939E0080939D009093A00009
:1005100080939F009093A2008093A1009093A400E9
:100520008093A3000E94D1018AEF0E94DA01109209
:100530009400089508959093750080937400089531
:1005400090936600809365007093770060937600C7
:10055000509364004093630008952F923F924F920E
:100560005F926F927F928F929F92AF92BF92CF9243
:10057000DF92EF92FF920F931F93CF93DF9320911F
:10058000740030917500281B390B3093B90020930B
:10059000B80020917800309179008091B800909156
:1005A000B900820F931F9093790080937800809117
:1005B0007A0090917B00019690937B0080937A0063
:1005C0008091B8009091B9002091B5003091B600AB
:1005D000821B930B9093BB008093BA0060906500E0
:1005E00070906600A090B800B090B90020916300B0
:1005F000309164006091BA007091BB00C0917600A8
:10060000D09177002090780030907900882777FD8E
:100610008095982F442737FD4095542F0E9403045E
:100620007B018C01CC24B7FCC094DC2C882477FCA3
:100630008094982CC601B501A40193010E94030483
:10064000E60EF71E081F191F442437FC4094542C53
:100650009E01442737FD4095542FC201B1010E94ED
:100660000304E60EF71E081F191FE0926800F092BF
:10067000690000936A0010936B008091680090916C
:100680006900A0916A00B0916B0080509048A04032
:10069000B0402CF08FEF9FE7A0E0B0E011C0809158
:1006A000680090916900A0916A00B0916B00815040
:1006B0009048AF4FBF4F64F481E090E8AFEFBFEFD9
:1006C0008093680090936900A0936A00B0936B00D8
:1006D000209168003091690040916A0050916B0050
:1006E000CA01B901E7E0660F771F881F991FEA95D5
:1006F000D1F7621B730B840B950B2FEF3FE740E0A4
:1007000050E00E9449042093B7008091B800909176
:10071000B9009093B6008093B5008091B700DF9147
:10072000CF911F910F91FF90EF90DF90CF90BF90EE
:10073000AF909F908F907F906F905F904F903F9081
:100740002F900895089590917C00923079F1933024
:1007500028F4992351F09130D1F50BC09430C9F0B1
:10076000943050F1953099F510C0803A59F581E0F8
:1007700020C0882311F0823011F485E01AC082383D
:1007800011F08038F9F482E014C08A30D9F484E0A2
:1007900010C08823B9F481E062E00E94FE0181E08C
:1007A00060E041E020E00E940D010895823051F4A4
:1007B00083E080937C000895882339F481E061E030
:1007C0000E94FE0110927C00089510927C00089512
:1007D0000F931F93CF93DF938CEB90E00E949301D4
:1007E000CCEBD0E0082F10E00C0F1D1F04C0888157
:1007F0000E94A3031992C017D107C9F7DF91CF91C7
:100800001F910F910895629FD001739FF001829F05
:10081000E00DF11D649FE00DF11D929FF00D839F8F
:10082000F00D749FF00D659FF00D9927729FB00D2C
:10083000E11DF91F639FB00DE11DF91FBD01CF013F
:1008400011240895AA1BBB1B51E107C0AA1FBB1F9F
:10085000A617B70710F0A61BB70B881F991F5A954C
:10086000A9F780959095BC01CD01089597FB092EBD
:1008700007260AD077FD04D0E5DF06D000201AF461
:10088000709561957F4F0895F6F7909581959F4FEC
:100890000895A1E21A2EAA1BBB1BFD010DC0AA1FC1
:1008A000BB1FEE1FFF1FA217B307E407F50720F0D9
:1008B000A21BB30BE40BF50B661F771F881F991F54
:1008C0001A9469F760957095809590959B01AC019D
:0A08D000BD01CF010895F894FFCF99
:0808DA0008083C8813E8030044
:00000001FF
