:1000000010C028C027C026C025C024C023C022C0DD
:1000100021C020C01FC01EC01DC01CC01BC01AC0F4
:1000200019C011241FBECFEDCDBF10E0A0E6B0E097
:10003000E0EDF4E002C005900D92A236B107D9F7C9
:1000400010E0A2E6B0E001C01D92AB3BB107E1F7C2
:10005000A1D03CC2D5CF8FB580688FBD8EB58261EF
:100060008EBD80E197E295BD84BDD69A9BBD8ABDC9
:1000700028EC30E0F9013197F1F70197D9F71BBC73
:100080001ABC80E197E228EC30E0F9013197F1F7F2
:100090000197D9F71BBC1ABC84EF91E090936100E3
:1000A000809360000895C09AB89AD5DFD89AD39A01
:1000B000DB9A84EF91E028EC30E0F9013197F1F719
:1000C0000197D9F7DB9884EF91E028EC30E0F90153
:1000D0003197F1F70197D9F7DB9A88EE93E028EC96
:1000E00030E0F9013197F1F70197D9F7DB980895DE
:1000F0009C01845F9140855F914010F080E00895FD
:100100003BBD2ABD81E008951BBC1ABC84EF91E081
:10011000909361008093600008958CEB92E09BBD0A
:100120008ABD80E197E228EC30E0F9013197F1F7E0
:100130000197D9F780E293E09BBD8ABD80E197E209
:1001400028EC30E0F9013197F1F70197D9F784E80D
:1001500093E09BBD8ABD88E893E128EC30E0F9018B
:100160003197F1F70197D9F786EB93E09BBD8ABDF4
:1001700088E893E128EC30E0F9013197F1F7019735
:10018000D9F788EE93E09BBD8ABD90936100809380
:10019000600008952F923F924F925F927F928F92CC
:1001A0009F92AF92BF92CF92DF92EF92FF920F9306
:1001B0001F93CF93DF9377DF77247394AA24AA94B5
:1001C000A2E0BA2E99249394F3E08F2EE1E0EE2E74
:1001D000F12C012D112D78ECC72ED12CC4EFD1E0DC
:1001E00089B3817080936D0080916800813009F43B
:1001F000A8C0813030F0823009F4ABC0833081F781
:100200000EC080916D00882339F4809268001092AE
:100210006A0010926900E4CF10926800E1CF8091EB
:100220006D00882351F48091690090916A000196D5
:1002300090936A008093690006C010926800109243
:100240006A00109269008091690090916A00C297DB
:1002500039F69092680010926A001092690010922C
:100260006D0010926F0010926C00BACF89B381704C
:1002700080936D0090916D0080916E00981741F40D
:100280008091690090916A008852934209F045C0BC
:100290008091690090916A008852934229F480917C
:1002A0006C008F5F80936C008091690090916A0070
:1002B0008157974170F08091690090916A0088524F
:1002C000934238F4E0916F00F0E0E059FF4FA082D4
:1002D0001BC08091690090916A008955924070F02E
:1002E0008091690090916A008157974138F4E091BC
:1002F0006F00F0E0E059FF4F708206C0E0916F00A0
:10030000F0E0E059FF4F108280916F008F5F809383
:100310006F0010926A0010926900809169009091BC
:100320006A00019690936A008093690080916D0045
:1003300080936E0080916C00823018F0B09268005B
:1003400005C080916F008B3408F490CFB0926800A4
:1003500047CF10926F0020E030E040E050E090E0A6
:1003600033C0E0916F00F0E0E059FF4F80818F3F94
:1003700041F4993121F020E030E040E050E090E09D
:1003800018C0E0916F00F0E0E059FF4F8081692FC5
:100390006F5F813069F41701280104C0220C331CFF
:1003A000441C551C9A95D2F72229332944295529F2
:1003B000962FE0916F00F0E0E059FF4F108280919E
:1003C0006F008F5F80936F0080916F008B3448F2D5
:1003D0002093620030936300409364005093650063
:1003E00090936600DB9A88EE93E0F6013197F1F77F
:1003F0000197D9F7DB9880916B008F5F80936B003A
:1004000010926800CA01AA27BB278A3039F41BBCA6
:100410001ABCD0936100C093600024C0823851F4AC
:1004200080916000909161009C012E5C3F4F825C46
:1004300091400BC0823299F48091600090916100EC
:100440009C012253304086529240855F914050F487
:100450003BBD2ABD309361002093600003C0883803
:1004600009F45BDE8091620014D08091620090916B
:100470006300A0916400B0916500892F9A2FAB2F83
:10048000BB2707D08091640004D08091650001D023
:10049000A7CE282F8FB7F8949AE0E8B3EE7FE8BB99
:1004A00000000000000000000000EDECF0E03197DB
:1004B000F1F70000E8B320FDE16020FFEE7FE8BB2C
:1004C000089427959A9589F78FBF0895F894FFCFE0
:0204D000F40135
:00000001FF
